:100000005BC2000086C2000084C2000082C2000001
:1000100080C200007EC200007CC200000C942F272A
:1000200078C2000076C2000074C2000072C20000F4
:1000300070C200006EC200006CC200000C948C3CC8
:1000400068C2000066C2000064C2000062C2000014
:1000500060C200005EC200005CC200005AC2000024
:1000600058C200000C94AD280C94DC2852C2000049
:1000700050C200004EC200004CC200004AC2000044
:1000800048C2000046C2000044C2000042C2000054
:100090000C9417290C9446293CC200000C94682D3E
:1000A00038C200000C94B93C34C2000032C20000D7
:1000B00030C200002EC200000C94E63C2AC20000B0
:1000C00028C2000026C200000C9401340C9481293F
:1000D0000C94B0291EC200001CC200001AC200000D
:1000E00018C20000C114D414D91402151015331508
:1000F0003C155B1560157F159015A315AD15D01532
:10010000E315151622164F1668169516A316D31664
:10011000E51615171A172C174017561760176F1783
:1001200082179A17B417CB17D917F2171018203067
:1001300020302530253025302A302A302A301D3015
:100140002F302F3046304A305030543058305E30E7
:100150006230663077306C307230AA30AE30B430F6
:10016000B830BC30C230C630CA30DB30D030D630C8
:100170001D31223127312C31313136313B31403183
:100180004E3145314A31823187318C31913196314E
:100190009B31A031A5317F31AA31AF310664EC1B10
:1001A0003C04BC163E3BE5B93CC93C37C29E5A3DB7
:1001B000660498083EEA69AAAA3E000000803FDC77
:1001C000DFE1E3E6E8EBEDEFF2F4F7F9FCFE000324
:1001D00005080A0C0F111416181B1D202224272CA9
:1001E00076D888674F0823C1DFAE59B1B796E5E4EA
:1001F00053C63A51997696E6C28426898C9B624012
:100200007C6FFCBC9C9F40BAA56FA590055A2A5CE8
:10021000936B6C676DC11BE0E40D47F520E6B5D02C
:10022000ED902E009435770080841E0000204E0053
:100230000000C833333333986E128341EF8D218928
:100240003BE655CFFEE6DBD1844B38F77C1D90A40E
:10025000BBE4243284725E8100C9F1ECA1E53D6EFD
:10026000616E00696E66004572726F723A2041508D
:100270005F48414C5F4156523A3A415652416E6195
:100280006C6F67496E206F7574206F6620636861BC
:100290006E6E656C730D0A00474F494E4720444F00
:1002A000574E20464F522041205245424F4F540D49
:1002B0000A0050414E49433A207363686564756C87
:1002C00065723A3A73797374656D5F696E697469C2
:1002D000616C697A65642063616C6C65646D6F72D2
:1002E00065207468616E206F6E63650050414E49F1
:1002F000433A2041565253656D6170686F72653A9A
:100300003A74616B6520757365642066726F6D2049
:10031000696E736964652074696D65722070726FAF
:10032000636573730050414E49433A20535049303E
:1003300020777269746520636F6C6C6973696F6E86
:100340000050414E49433A20535049302074726165
:100350006E7366657220636F6C6C6973696F6E0093
:1003600000002100240027002A002D003000330067
:1003700001010000040107010A010000220025001C
:1003800028002B002E00310034000201000005017E
:1003900008010B01000020002300260029002C008A
:1003A0002F003200000100000301060109010505CC
:1003B0000505070508080808020202020A0A0808DB
:1003C0000404040401010101010101010303030309
:1003D00003030303040707070C0C0C0C0C0C0C0C98
:1003E0000202020206060606060606060B0B0B0BA9
:1003F0000B0B0B0B050102102020080810204010E9
:1004000020408002010201080402010102040810D8
:1004100020408080402010080402018004020180F6
:10042000402010080402010804020101020408101F
:100430002040800102040810204080400000090A8A
:1004400002080B0C0D070603040100000000000069
:10045000000000000000000000000000000000009C
:10046000000000000000000011100F00000000005C
:10047000000000000000000000000000000000007C
:100480000000002C004F7074666C6F773A20666134
:10049000696C656420746F2066696E642066697299
:1004A000737420706978656C00007D0EA82A4F3344
:1004B0000F381238AF38720E11241FBECFEFD1E2C1
:1004C000DEBFCDBF00E00CBF18E0A0E0B2E0EAE480
:1004D000F1E900E00BBF02C007900D92A23CB1070A
:1004E000D9F71BBE1AE0A2ECB8E001C01D92AC35F2
:1004F000B107E1F714E0C6EBD4E004C02297FE0197
:100500000E949548CA3AD107C9F70E948D140C94ED
:10051000994876CDA0E3B0E0E0E9F2E00C945C48C5
:10052000A8E04E010894811C911CF401BA2F11928D
:10053000BA95E9F729833A834B835C836D837E8385
:100540008F839887CE010996FC011192AA95E9F74D
:10055000A986BA86CB86DC86ED86FE860F87188B49
:1005600029813A814B815C812DA73EA74FA758ABCB
:1005700079018A018FEF9FEFA0E0B0E0E822F92235
:100580000A231B231A014424552429853A854B85C7
:100590005C8529A73AA74BA75CA759016A01A82245
:1005A000B922CA22DB223A0188249924C601B50166
:1005B000A80197010E94F4476DA37EA38FA398A77B
:1005C000C401B3010E94F44769A37AA38BA39CA33F
:1005D000C601B501A20191010E94F4477B018C0183
:1005E000C401B3010E94F4475B016C0189A19AA187
:1005F000ABA1BCA18E0D9F1DA01FB11F89A39AA303
:10060000ABA3BCA32DA13EA14FA158A5CA01AA2707
:10061000BB2729A13AA14BA15CA1280F391F4A1F72
:100620005B1F29A33AA34BA35CA32E153F054007EC
:10063000510740F480E090E0A1E0B0E0A80EB91EC0
:10064000CA1EDB1E89A19AA1ABA1BCA19D014427B2
:1006500055272A0D3B1D4C1D5D1D2D8F3E8F4F8F45
:1006600058A36C01BB24AA248DA19EA1AFA1B8A55B
:10067000A070B070A80EB91ECA1EDB1EA98EBA8E5D
:10068000CB8EDC8E9A8C8B8C7C8C9E8D6F8D78A122
:10069000FE01719688E0DF011D928A95E9F72D8BA6
:1006A0009E8B6F8B788F2D853E854F8558896DA5E4
:1006B0007EA58FA598A90E94F4477B018C012D810E
:1006C0003E814F81588569A57AA58BA59CA50E947E
:1006D000F447E60EF71E081F191F6D897E898F8962
:1006E000988D6E0D7F1D801F911F6D8B7E8B8F8B64
:1006F000988FEE892A2D392D482D572D7E2F8F89E1
:10070000988DE096E2E10C947848EF92FF920F9377
:10071000DF93CF93CDB7DEB760970FB6F894DEBF07
:100720000FBECDBFA82F002309F461C07E0108943D
:10073000E11CF11C88E0F70111928A95E9F7298301
:100740003A834B835C836D837E83AF83988780E29B
:10075000801BE82FFF27E7FDF0954D815E816F81BB
:100760007885181684F01D861E861F86188A8827AD
:1007700099278E1B9F0B04C07695679557954795D3
:100780008A95D2F728C0202F332727FD3095DB012B
:10079000CA01022E04C0B695A795979587950A942D
:1007A000D2F78D879E87AF87B88B04C0440F551F43
:1007B000661F771FEA95D2F789819A81AB81BC8148
:1007C00004C0B695A795979587952A95D2F7482B9B
:1007D000592B6A2B7B2B49875A876B877C87298506
:1007E0003A854B855C856D857E85AF8598898A2F96
:1007F00060960FB6F894DEBF0FBECDBFCF91DF91EC
:100800000F91FF90EF900895EF92FF920F93DF9377
:10081000CF93CDB7DEB760970FB6F894DEBF0FBEAB
:10082000CDBFA82F002309F461C07E010894E11C0C
:10083000F11C88E0F70111928A95E9F729833A8340
:100840004B835C836D837E83AF83988780E2801BBC
:10085000E82FFF27E7FDF09549815A816B817C8164
:10086000181684F019861A861B861C8688279927F5
:100870008E1B9F0B04C0440F551F661F771F8A9560
:10088000D2F728C0202F332727FD3095DB01CA017E
:10089000022E04C0880F991FAA1FBB1F0A94D2F70B
:1008A00089879A87AB87BC8704C0769567955795EB
:1008B0004795EA95D2F78D819E81AF81B88504C0B6
:1008C000880F991FAA1FBB1F2A95D2F7482B592BB7
:1008D0006A2B7B2B4D875E876F87788B29853A85BE
:1008E0004B855C856D857E85AF8598898A2F60965E
:1008F0000FB6F894DEBF0FBECDBFCF91DF910F9141
:10090000FF90EF900895EF92FF920F93DF93CF93B4
:10091000CDB7DEB760970FB6F894DEBF0FBECDBF80
:10092000A82F002309F467C07E010894E11CF11C84
:1009300088E0F70111928A95E9F729833A834B837E
:100940005C836D837E83AF83988780E2801B4D81BB
:100950005E816F817885E82FFF27E7FDF0951816F7
:10096000B4F0DB01CA01BB0F880B982FDC018D8727
:100970009E87AF87B88B882799278E1B9F0B04C053
:1009800075956795579547958A95D2F728C0202F7A
:10099000332727FD3095DB01CA01022E04C0B5952F
:1009A000A795979587950A94D2F78D879E87AF87ED
:1009B000B88B04C0440F551F661F771FEA95D2F706
:1009C00089819A81AB81BC8104C0B695A795979522
:1009D00087952A95D2F7482B592B6A2B7B2B498771
:1009E0005A876B877C8729853A854B855C856D8521
:1009F0007E85AF8598898A2F60960FB6F894DEBF02
:100A00000FBECDBFCF91DF910F91FF90EF90089572
:100A1000A2E7B0E0EEE0F5E00C945C48982E892E59
:100A2000712E88E0FE013196DF01682E1D926A94D6
:100A3000E9F729833A834B835C836D837E839F82AE
:100A40009887FE013996DF011D928A95E9F7A986FC
:100A5000BA86CB86DC86ED86FE860F87188B8D8165
:100A60009E81AF81B885B7FD07C0E1961CAE1DAE73
:100A70001EAE1FAEE19764C0219581E0121608F00A
:100A800080E0319591E0131608F090E0B32FB81B89
:100A900081E03B1708F080E0982B419531E0141677
:100AA00008F030E0A42FA91B81E04A1708F080E08D
:100AB000382B519591E0151608F090E0F52FF31BB7
:100AC00081E05F1708F080E0982B619531E0161601
:100AD00008F030E0E62FE91B81E06E1708F080E0B7
:100AE000382B719541E0171608F040E0572F531B43
:100AF00081E0751708F080E0482B892D819591E001
:100B0000181608F090E0682E641A462D31E086151C
:100B100008F030E0932B882D8195891B2983BA83B7
:100B2000AB83FC83ED835E834F8388872FEF3FEF9A
:100B30004FEF5FEFE1962CAF3DAF4EAF5FAFE19768
:100B40008D859E85AF85B889B7FF6AC0E1964CADAB
:100B50005DAD6EAD7FADE197409550956095709518
:100B6000E1964CAF5DAF6EAF7FAFE197A19481E0AE
:100B70001A1408F080E0B19491E01B1408F090E0A2
:100B80006B2D681B81E0B61608F080E0982BC194AD
:100B900021E01C1408F020E05C2D591B81E0C516F3
:100BA00008F080E0282BD19491E01D1408F090E02B
:100BB0004D2D421B81E0D41608F080E0982BE19483
:100BC00021E01E1408F020E03E2D391B81E0E316E1
:100BD00008F080E0282BF19491E01F1408F090E0D9
:100BE0007F2D721B272F81E0F71608F080E0982BED
:100BF000019511E0101608F010E0802F891B982F46
:100C000081E0091708F080E0182B872D8195811B62
:100C1000A9866A875B874C873D872E879F87888B4D
:100C200099812A813B814C815D816E817F81A8857C
:100C3000B9851A850B85FC84ED84DE84CF84B88861
:100C400088E0E1E18E2E912C8C0E9D1EF401682E21
:100C500011926A94E9F7998B2A8B3B8B4C8B5D8BB5
:100C60006E8B7F8BA88F9E01275E3F4FF9011192FB
:100C70008A95E9F7B98F1A8F0B8FFC8EED8EDE8E79
:100C8000CF8EB8A2298C3A8C4B8C5C8CED8CFE8C70
:100C90000F8D18A169887A888B889C8821966CAE04
:100CA0007DAE8EAE9FAE21976D887E888F88988CA2
:100CB000E114F1040105110509F0D9C362147304AC
:100CC0008404950408F057C100E0201600E03006C7
:100CD00001E0400600E0500688F41FEF21163104C1
:100CE0004104510439F030F048E0E42EF12C012D9C
:100CF000112D18C0EE24FF24870114C020E0221615
:100D000020E0320620E0420621E0520630F038E1D1
:100D1000E32EF12C012D112D05C020E1E22EF12C46
:100D2000012D112DD201C1010E2C04C0B695A7953D
:100D3000979587950A94D2F78A5A994FDC012C919E
:100D400080E290E0A0E0B0E08E199F09A00BB10B0B
:100D50007C018D01E21AF10801091109E114F10485
:100D600001051105D1F10E2C04C0220C331C441CCA
:100D7000551C0A94D2F7A40193010E2C04C0220F33
:100D8000331F441F551F0A94D2F780E290E08E195A
:100D90009F0921966CAC7DAC8EAC9FAC219704C0B2
:100DA00096948794779467948A95D2F7622A732AE7
:100DB000842A952A2196ACACBDACCEACDFAC219791
:100DC00004C0AA0CBB1CCC1CDD1CEA94D2F72196F3
:100DD000ACAEBDAECEAEDFAE21976201EE24FF24F5
:100DE0002996CCAEDDAEEEAEFFAE29979201810121
:100DF000207030702D960CAF1DAF2EAF3FAF2D97EA
:100E0000C401B301A70196010E943A487B018C01FD
:100E1000C401B30129962CAD3DAD4EAD5FAD299710
:100E20000E943A48C901DA013C014D01C401B301F5
:100E30002D962CAD3DAD4EAD5FAD2D970E94F44784
:100E40009B01AC018701FF24EE242196ACACBDAC24
:100E5000CEACDFAC2197C601AA27BB27570168019A
:100E6000A82AB92ACA2ADB2AA216B306C406D506BE
:100E7000E0F408946108710881089108A20CB31C81
:100E8000C41CD51CA214B304C404D50470F0A2166B
:100E9000B306C406D50648F40894610871088108B1
:100EA0009108A20CB31CC41CD51CA21AB30AC40A14
:100EB000D50AC601B50129962CAD3DAD4EAD5FAD4D
:100EC00029970E943A487B018C01C601B5012996F9
:100ED0002CAD3DAD4EAD5FAD29970E943A48C9019A
:100EE000DA015C016D01C601B5012D962CAD3DAD59
:100EF0004EAD5FAD2D970E94F4479B01AC01870179
:100F0000FF24EE2421968CAD9DADAEADBFAD2197F3
:100F1000A070B070E82AF92A0A2B1B2BE216F30600
:100F200004071507C0F40894A108B108C108D10846
:100F3000E20CF31C041D151DE214F3040405150551
:100F400050F0E216F3060407150728F40894A108E8
:100F5000B108C108D108D3019927882786017501F6
:100F6000E82AF92A0A2B1B2B2596ECAEFDAE0EAF14
:100F70001FAF2597EBC4211431044104510471F4CF
:100F800061E070E080E090E020E030E040E050E0A0
:100F90000E943A48C901DA011C012D0100E0201627
:100FA00000E0300601E0400600E0500688F41FEF44
:100FB000211631044104510431F028F048E050E09A
:100FC00060E070E017C040E050E060E070E012C008
:100FD00020E0221620E0320620E0420621E0520600
:100FE00028F048E150E060E070E004C040E150E0EB
:100FF00060E070E0D201C101042E04C0B695A7954F
:10100000979587950A94D2F78A5A994FDC012C91CB
:10101000E0E2EE2EF12C012D112DD801C701841B29
:10102000950BA60BB70B821B9109A109B10900977B
:10103000A105B10561F464015301A218B308C40805
:10104000D50831E0632E712C812C912C24C1E396BC
:101050008FAFE397082E04C0220C331C441C551C90
:101060000A94D2F7EE2DE81B640153010E2E04C042
:10107000D694C794B794A7940A94D2F7A401930185
:10108000E3960FACE39704C0220F331F441F551F94
:101090000A94D2F721966CAC7DAC8EAC9FAC2197B4
:1010A0000E2E04C096948794779467940A94D2F78E
:1010B00084017301E22AF32A042B152BE9AEFAAE60
:1010C0000BAF1CAF3201882499249201810120705A
:1010D000307061960CAF1DAF2EAF3FAF6197C60168
:1010E000B501A40193010E943A487B018C01C6011D
:1010F000B501A40193010E943A48C901DA0165963D
:101100008CAF9DAFAEAFBFAF6597BC01CD0161960F
:101110002CAD3DAD4EAD5FAD61970E94F4479B0194
:10112000AC018701FF24EE24A9ACBAACCBACDCAC9B
:10113000C601AA27BB275C016D01AE28BF28C02AC3
:10114000D12AA216B306C406D50660F565966CAD25
:101150007DAD8EAD9FAD65976150704080409040F1
:1011600065966CAF7DAF8EAF9FAF6597A20CB31C39
:10117000C41CD51CA214B304C404D50498F0A21650
:10118000B306C406D50670F46150704080409040AC
:1011900065966CAF7DAF8EAF9FAF6597A20CB31C09
:1011A000C41CD51CA21AB30AC40AD50AC601B501CB
:1011B000A40193010E943A487B018C01C601B5014C
:1011C000A40193010E943A48C901DA013C014D0192
:1011D000C401B30161962CAD3DAD4EAD5FAD6197DD
:1011E0000E94F4479B01AC018701FF24EE2489ADE6
:1011F0009AADABADBCADA070B07057016801A82A24
:10120000B92ACA2ADB2AA216B306C406D506E0F418
:1012100008946108710881089108A20CB31CC41CD1
:10122000D51CA214B304C404D50470F0A216B306EE
:10123000C406D50648F4089461087108810891082D
:10124000A20CB31CC41CD51C21968CAD9DADAEADBB
:10125000BFAD2197E3960FACE39704C0880F991FA9
:10126000AA1FBB1F0A94D2F721968CAF9DAFAEAFD9
:10127000BFAF2197A21AB30AC40AD50A6596ECAC8F
:10128000FDAC0EAD1FAD6597D70199278827682A59
:10129000792A8A2A9B2A82012227332769960CAF52
:1012A0001DAF2EAF3FAF6997A20191014070507002
:1012B0006D962CAF3DAF4EAF5FAF6D97C601B501D8
:1012C00069962CAD3DAD4EAD5FAD69970E943A4831
:1012D0007B018C01C601B50169962CAD3DAD4EADCB
:1012E0005FAD69970E943A48C901DA01A1968CAFB7
:1012F0009DAFAEAFBFAFA197BC01CD016D962CAD38
:101300003DAD4EAD5FAD6D970E94F4479B01AC01C2
:101310008701FF24EE242196ACACBDACCEACDFAC93
:101320002197C601AA27BB2757016801A82AB92A15
:10133000CA2ADB2AA216B306C406D50660F5A19612
:101340006CAD7DAD8EAD9FADA1976150704080407A
:101350009040A1966CAF7DAF8EAF9FAFA197A20CCE
:10136000B31CC41CD51CA214B304C404D50498F047
:10137000A216B306C406D50670F4615070408040D2
:101380009040A1966CAF7DAF8EAF9FAFA197A20C9E
:10139000B31CC41CD51CA21AB30AC40AD50AC601C0
:1013A000B50169962CAD3DAD4EAD5FAD69970E941C
:1013B0003A487B018C01C601B50169962CAD3DAD63
:1013C0004EAD5FAD69970E943A48C901DA015C01F0
:1013D0006D01C601B5016D962CAD3DAD4EAD5FAD55
:1013E0006D970E94F4479B01AC018701FF24EE2416
:1013F00021968CAD9DADAEADBFAD2197A070B07004
:10140000E82AF92A0A2B1B2BE216F3060407150714
:10141000C0F40894A108B108C108D108E20CF31C7B
:10142000041D151DE214F3040405150550F0E21621
:10143000F3060407150728F40894A108B108C108A9
:10144000D108A196ECACFDAC0EAD1FADA197D701B4
:101450009927882796018501082B192B2A2B3B2BCE
:1014600025960CAF1DAF2EAF3FAF259772C26E14FD
:101470007F048006910608F45FC220E0E21620E0B7
:10148000F20621E0020720E0120788F43FEFE3169E
:10149000F1040105110531F028F048E050E060E06A
:1014A00070E017C040E050E060E070E012C040E043
:1014B000E41640E0F40640E0040741E0140728F099
:1014C00048E150E060E070E004C040E150E060E0DE
:1014D00070E0D801C701042E04C0B695A795979572
:1014E00087950A94D2F78A5A994FDC012C9130E201
:1014F000A32EB12CC12CD12CD601C501841B950B78
:10150000A60BB70B821B9109A109B1090097A10590
:10151000B10599F4E614F7040805190508F4FEC1AD
:1015200021966CAC7DAC8EAC9FAC21976214730499
:101530008404950408F0F2C1FFC1E2968FAFE297F0
:10154000082E04C0EE0CFF1C001F111F0A94D2F7D6
:101550006A2D681BD201C101062E04C0B695A7955D
:10156000979587950A94D2F75C016D01AE28BF2844
:10157000C02AD12AADAABEAACFAAD8AE72016101F3
:10158000E2960FACE29704C0CC0CDD1CEE1CFF1CF5
:101590000A94D2F7C9AADAAAEBAAFCAA64015301F9
:1015A000062E04C0D694C794B794A7940A94D2F791
:1015B000D401C301E2960FACE29704C0880F991FD3
:1015C000AA1FBB1F0A94D2F72196ECACFDAC0EAD5E
:1015D0001FAD219704C016950795F794E7946A9577
:1015E000D2F737014801682A792A8A2A9B2A6DA6F0
:1015F0007EA68FA698AAEDA8FEA80FA918AD38015F
:10160000882499249801870120703070A5960CAF2A
:101610001DAF2EAF3FAFA597C601B501A401930141
:101620000E943A487B018C01C601B501A4019301D7
:101630000E943A48C901DA011C012D01C201B10121
:10164000A5962CAD3DAD4EAD5FADA5970E94F4477C
:101650009B01AC018701FF24EE24ADA4BEA4CFA45E
:10166000D8A8C601AA27BB2757016801A82AB92A0A
:10167000CA2ADB2AA216B306C406D50600F50894CA
:101680002108310841085108EDA8FEA80FA918AD9E
:10169000AE0CBF1CC01ED11EAE14BF04C006D106C6
:1016A00070F0A216B306C406D50648F408942108C3
:1016B000310841085108AE0CBF1CC01ED11EA21A31
:1016C000B30AC40AD50AC601B501A40193010E9458
:1016D0003A487B018C01C601B501A40193010E9427
:1016E0003A48C901DA013C014D01C401B301A59694
:1016F0002CAD3DAD4EAD5FADA5970E94F4479B016B
:10170000AC018701FF24EE248DA59EA5AFA5B8A945
:10171000A070B07057016801A82AB92ACA2ADB2A2A
:10172000A216B306C406D50600F508946108710830
:10173000810891086DA97EA98FA998ADA60EB71E44
:10174000C81ED91EA616B706C806D90670F0A2167E
:10175000B306C406D50648F40894610871088108E8
:101760009108A60EB71EC81ED91ED601C501821B40
:10177000930BA40BB50B89A79AA7ABA7BCA7D10164
:101780009927882764015301A82AB92ACA2ADB2A83
:101790002596ACAEBDAECEAEDFAE25978601750107
:1017A0002FEF3FEF40E050E0E222F3220423152325
:1017B000A60166277727AD964CAF5DAF6EAF7FAFC2
:1017C000AD97A9A8BAA8CBA8DCA86FEF7FEF80E0FF
:1017D00090E0A622B722C822D92289A99AA9ABA94A
:1017E000BCA91D0144245524C801B701A6019501D7
:1017F0000E94F447A9966CAF7DAF8EAF9FAFA997BB
:10180000C801B701A20191010E94F4473B014C01BC
:10181000AD966CAD7DAD8EAD9FADAD97A60195013A
:101820000E94F4477B018C01AD966CAD7DAD8EAD11
:101830009FADAD97A20191010E94F4475B016C013D
:10184000A8019701260D371D481D591DA9966CAC9E
:101850007DAC8EAC9FACA997C401AA27BB27280FEB
:10186000391F4A1F5B1F2E153F054007510748F4DB
:10187000E12CF12C61E0062F112DAE0CBF1CC01E17
:10188000D11ECA01AA27BB27BC01CD016A0D7B1D51
:101890008C1D9D1D69A47AA48BA49CA46616770652
:1018A0008806990650F1661577058805990509F0AF
:1018B0004DC0D90199278827A9962CAD3DAD4EADD5
:1018C0005FADA99740705070820F931FA41FB51F82
:1018D00021962CAD3DAD4EAD5FAD2197E2960FAC9C
:1018E000E29704C0220F331F441F551F0A94D2F7FA
:1018F000281739074A075B0748F525960CAD1DAD3B
:101900002EAD3FAD25970150104020403040259628
:101910000CAF1DAF2EAF3FAF259718C066247724BC
:10192000430121E030E040E050E025962CAF3DAF90
:101930004EAF5FAF25970DC06624772443012596EF
:101940001CAE1DAE1EAE1FAE259703C066247724C5
:101950004301FE01B19688E0DF011D928A95E9F707
:101960002596ACACBDACCEACDFAC2597A9A2BAA293
:10197000CBA2DCA26DA27EA28FA298A622962FAD4A
:1019800022973AA14BA15CA1662D7EA1DFA098A56C
:10199000E196ECACFDAC0EAD1FADE197E114F104A6
:1019A0000105110509F456C0219581E0121608F0D1
:1019B00080E03195E1E0131608F0E0E0932E981AEC
:1019C00081E0391508F080E0E82B4195F1E014162C
:1019D00008F0F0E0A42EAE1A81E04A1508F080E08D
:1019E000F82B5195E1E0151608F0E0E0B52EBF1A8E
:1019F00081E05B1508F080E0E82B6195F1E01616B8
:101A000008F0F0E0A62FAE1B81E06A1708F080E036
:101A1000F82B7195E1E0171608F0E0E0C72ECF1A19
:101A200081E07C1508F080E0E82B8D2D8195F1E0B8
:101A3000181608F0F0E0D82EDE1AE1E08D1508F057
:101A4000E0E0FE2B892F8195392DA5016A2F7C2D91
:101A5000982F9F1B8D2DCE58DF4FE2E10C947848D4
:101A60000F931F93CF93DF93689F8001699F100DA1
:101A7000789F100D1124C8010DD0EC01009721F0C2
:101A800060E070E0A8011CD1CE01DF91CF911F91E1
:101A90000F910895CF93DF93BC018230910510F42C
:101AA00062E070E0A0915A0AB0915B0AED01E0E0BB
:101AB000F0E040E050E021C08881998186179707C7
:101AC00069F48A819B81309719F09383828304C0E3
:101AD00090935B0A80935A0AFE0134C06817790715
:101AE00038F44115510519F08417950708F4AC0135
:101AF000FE018A819B819C01E9012097E9F641154D
:101B00005105A9F1CA01861B970B049708F4BA0185
:101B1000E0E0F0E02AC08D919C9111978417950721
:101B2000F9F46417750781F412968D919C911397BF
:101B3000309719F09383828304C090935B0A80935B
:101B40005A0AFD0132964CC0CA01861B970BFD0153
:101B5000E80FF91F6193719302978D939C9340C096
:101B6000FD01828193819C01D9011097A1F680919A
:101B7000580A9091590A892B41F480915807909105
:101B800059079093590A8093580A40915A075091E7
:101B90005B074115510541F44DB75EB7809156077B
:101BA00090915707481B590B2091580A3091590AB8
:101BB000CA01821B930B8617970780F0AB014E5F1B
:101BC0005F4F8417950750F0420F531F5093590AE7
:101BD0004093580AF9016193719302C0E0E0F0E08C
:101BE000CF01DF91CF910895CF93DF93009709F450
:101BF00050C0EC0122971B821A82A0915A0AB09120
:101C00005B0A109709F140E050E0AC17BD0708F1FE
:101C1000BB83AA83FE0121913191E20FF31FAE171E
:101C2000BF0779F48D919C911197280F391F2E5F72
:101C30003F4F3983288312968D919C9113979B83F4
:101C40008A834115510571F4D0935B0AC0935A0AF7
:101C500020C012968D919C911397AD01009711F0C1
:101C6000DC01D3CFFA01D383C28321913191E20FFA
:101C7000F31FCE17DF0769F488819981280F391F78
:101C80002E5F3F4FFA01318320838A819B819383AA
:101C90008283DF91CF910895FC01059061507040DF
:101CA0000110D8F7809590958E0F9F1F0895FB0126
:101CB000DC0102C001900D9241505040D8F70895C8
:101CC000DC0101C06D9341505040E0F70895FC01E4
:101CD0006150704001900110D8F7809590958E0F5B
:101CE0009F1F089589E998E09093C3088093C208E4
:101CF000109200091092FF08089582EC98E060E0CD
:101D00000C946C3F0F931F9300915D0710915E0739
:101D1000F801828993890E944E1BF8018289938978
:101D200060E072E00E947C1CF801828993896AE27B
:101D300072E00E947C1CF8018289938966E472E05B
:101D40000E947C1CF801828993896EE572E00E94F2
:101D50007C1CF8018289938965E772E00E947C1CF3
:101D6000F8018289938969E972E00E947C1CF8017C
:101D70008289938961EB72E00E947C1CF801828960
:101D8000938969EC72E00E947C1CF8018289938936
:101D900064EE72E00E947C1CF801828993896EEFE8
:101DA00072E00E947C1CF801828993890E944E1B7C
:101DB0001F910F910895A0E0B0E0E1EEFEE00C94D9
:101DC0005E48C0915D07D0915E078A899B896EE16C
:101DD00073E00E947C1CEA8DFB8DA081B18112967C
:101DE0002D913C911397CF0168EE73E0F90119959D
:101DF0000F2EF0E04F2EF0E05F2EF8EC6F2EF2E4A5
:101E00007F2EF02D8AC000D00F92EDB7FEB7418231
:101E100052826382748282EC98E040E050E060E09D
:101E200070E08A019B016A017B010F2EF0E08F2E8A
:101E3000F0E09F2EF0E8AF2EFFE3BF2EF02D0E94C2
:101E4000513D0F900F900F900F9080911A098823A9
:101E500031F08A899B896AE373E00E947C1C8A893D
:101E60009B8965E473E00E947A1C6091C9087091B7
:101E7000CA088A899B894AE050E00E944B1C8A89E3
:101E80009B896CE473E00E947A1C6091CD0870918C
:101E9000CE088A899B894AE050E00E944B1C8A89BF
:101EA0009B896EE473E00E947A1C6091CB0870916C
:101EB000CC088A899B894AE050E00E944B1C8A89A1
:101EC0009B896CE473E00E947A1C6091CF0870914A
:101ED000D0088A899B894AE050E00E944B1C8A897D
:101EE0009B8966E573E00E947A1C8A899B896091D0
:101EF000C8084AE050E00E94021C8A899B890E941F
:101F00004E1BAA8DBB8DED91FC9111970280F38140
:101F1000E02DCD0164E670E01995EA89FB89A08186
:101F2000B18114962D913C911597CF01F901199526
:101F3000892B09F468CFCDB7DEB7E0E10C947A487D
:101F4000EF92FF920F931F93CF93DF93E0905D0783
:101F5000F0905E07D70152968D919C9153976EE554
:101F600073E00E947A1CF7010289138982EC98E0E1
:101F70000E94B843BC01C8014AE050E00E94F21B35
:101F800082EC98E00E943F43D70152962D913C91FC
:101F90005397882321F0C90162E773E003C0C901A8
:101FA0006AE773E00E947A1CF701828993890E9494
:101FB0004E1BD70152968D919C91539764E873E024
:101FC0000E947C1CF701828993896EE973E00E946C
:101FD0007C1CD70152968D919C91539767EA73E0D0
:101FE0000E947C1CF701828993896DEB73E00E944B
:101FF0007C1CD70152968D919C91539763ED73E0B1
:102000000E947C1CF7018289938969EE73E00E942B
:102010007C1CD70152968D919C9153976FEF73E082
:102020000E947C1CF7018289938965E174E00E941B
:102030007C1CD70152968D919C9153976BE274E072
:102040000E947C1CF7018289938961E474E00E94FC
:102050007C1CD70152968D919C91539767E574E053
:102060000E947C1CF701828993896DE674E00E94CE
:102070007C1C10C0D7015A96ED91FC915B97A08112
:10208000B18112962D913C911397CF0164E170E0DC
:10209000F9011995D7015296ED91FC915397A081C2
:1020A000B18114962D913C911597CF01F9011995A5
:1020B000892B01F3D7015296ED91FC915397A081A2
:1020C000B18118962D913C911997CF01F90119957D
:1020D000EC018136910519F08134910529F482ECE7
:1020E00098E061E00E944B43C133D10539F482ECA2
:1020F00098E068EE73E00E94E3431EC0C233D1054E
:1021000039F482EC98E060ED77E00E94E3431EC072
:10211000C333D10539F482EC98E068EB7BE00E9490
:10212000E3431CC0C433D10539F482EC98E060EA83
:102130007FE00E94E3431AC0C533D10539F482EC35
:1021400098E068E873E10E94E34318C0C633D10504
:1021500029F482EC98E060E777E116C0C733D10537
:1021600029F482EC98E068E57BE10EC0C833D10524
:1021700029F482EC98E060E47FE106C0E99731F44D
:1021800082EC98E068E273E20E94E343F7018289FF
:1021900093896EE573E00E947A1CD70152960D91E7
:1021A0001C91539782EC98E00E94B843BC01C8018F
:1021B0004AE050E00E94F21B82EC98E00E943F430C
:1021C000F70122893389882321F0C90162E773E08E
:1021D00003C0C9016AE773E00E947A1CD7015296D6
:1021E0008D919C9153970E944E1BCDB7DEB7E6E0D0
:1021F0000C9484480F931F93CF93DF9382EC98E065
:102200000E94EA418C01C0915D07D0915E078A89E6
:102210009B8968E874E00E947A1C8A899B89B801CE
:102220004AE050E00E945D1C8A899B8965E974E060
:102230000E947C1C8A899B8967EA74E00E947C1C4E
:102240008A899B8963EB74E00E947C1C8A899B8944
:102250006EEB74E00E947C1C8A899B890E944E1B55
:102260000DC0EA8DFB8DA081B18112962D913C911C
:102270001397CF0164E170E0F9011995EA89FB89B0
:10228000A081B18114962D913C911597CF01F90150
:102290001995892B31F3EA89FB89A081B1811896C0
:1022A0002D913C911997CF01F90119958133910531
:1022B00029F482EC98E060E476E006C0C49731F43B
:1022C00082EC98E060E971E00E94FD418A899B8977
:1022D0006AEC74E00E947A1C0A891B8982EC98E0FF
:1022E0000E94EA41BC01C8014AE050E00E945D1C26
:1022F000DF91CF911F910F9108950F931F9300913C
:102300005D0710915E07F801828993896BED74E097
:102310000E947C1C82EC98E00E94B944F8018289FA
:10232000938965EF74E00E947C1C1F910F910895C2
:102330000F931F93CF93DF9300915D0710915E077A
:10234000D80152968D919C9153976FE075E00E9451
:102350007C1C27C0D2DFC0E0D0E0D8015296ED91BE
:10236000FC915397A081B18114962D913C911597C2
:10237000CF01F9011995892BA1F4D8015A96ED9155
:10238000FC915B97A081B18112962D913C9113979E
:10239000CF0164E670E0F90119952196C431D105A9
:1023A000E1F6D8015296ED91FC915397A081B1814D
:1023B00014962D913C911597CF01F9011995892B10
:1023C00049F2DF91CF911F910F910895EF92FF9203
:1023D0000F931F93CF93DF93E0905D07F0905E071C
:1023E000D70152968D919C9153976FE275E00E94B0
:1023F0007A1CF7010289138982EC98E00E9423433A
:10240000BC01C8014AE050E00E94F21B82EC98E057
:102410000E944942D70152962D913C9153978823AF
:1024200021F0C90162E773E003C0C9016AE773E004
:102430000E947A1CF701828993890E944E1BD70162
:1024400052968D919C91539760E475E00E947C1C9C
:10245000F701828993896EE973E00E947C1CD701A1
:1024600052968D919C91539767E575E00E947C1C74
:10247000F7018289938964E675E00E947C1CD7018C
:1024800052968D919C91539761E775E00E947C1C58
:10249000F701828993896EE775E00E947C1CD70161
:1024A00052968D919C9153976BE875E00E947C1C2D
:1024B000F701828993896DE674E00E947C1C10C04C
:1024C000D7015A96ED91FC915B97A081B18112964C
:1024D0002D913C911397CF0164E170E0F9011995BA
:1024E000D7015296ED91FC915397A081B18114963A
:1024F0002D913C911597CF01F9011995892B01F385
:10250000D7015296ED91FC915397A081B181189615
:102510002D913C911997CF01F9011995EC01813664
:10252000910519F08134910529F482EC98E061E07D
:102530000E945442C233D10539F482EC98E060ED38
:1025400077E00E942E4318C0C333D10529F482ECF2
:1025500098E068EB7BE016C0C433D10529F482EC27
:1025600098E060EA7FE00EC0C533D10529F482EC23
:1025700098E068E873E106C0E69731F482EC98E0F1
:1025800065E479E10E942E43F701828993896FE225
:1025900075E00E947A1CD70152960D911C915397B9
:1025A00082EC98E00E942343BC01C8014AE050E05D
:1025B0000E94F21B82EC98E00E944942F7012289B6
:1025C0003389882321F0C90162E773E003C0C901A0
:1025D0006AE773E00E947A1CD70152968D919C9114
:1025E00053970E944E1BCDB7DEB7E6E00C948448AB
:1025F0000F931F93CF93DF93C0915D07D0915E0738
:102600008A899B8968E975E00E947A1C0A891B897E
:1026100082EC98E06AE00E948D3F682FC80142E09A
:1026200050E00E94021CAA8DBB8DED91FC91119788
:102630000084F185E02DCD0162E370E019958A896F
:102640009B8961EA75E00E947A1C0A891B8982ECE9
:1026500098E06BE00E948D3F682FC80142E050E097
:102660000E94021CAA8DBB8DED91FC9111970084F4
:10267000F185E02DCD0162E370E019958A899B898F
:102680000E944E1B8A899B8963EA75E00E947A1C2E
:102690000A891B8982EC98E060E00E948D3F682FD8
:1026A000C80140E150E00E94021CAA8DBB8DED9153
:1026B000FC9111970084F185E02DCD0162E370E07B
:1026C00019958A899B8965EB75E00E947A1C8A8935
:1026D0009B89E4D78A899B896CEB75E00E947A1C00
:1026E0000A891B8982EC98E00E942343BC01C8013F
:1026F0004AE050E00E94F21B82EC98E00E944942BE
:102700002A893B89882321F0C90162E773E003C06D
:10271000C9016AE773E00E947A1C8A899B89BED747
:102720008A899B896EEC75E00E947A1C0A891B8954
:1027300082EC98E00E94EA41BC01C8014AE050E006
:102740000E944B1C8A899B89A9D78A899B8960EE44
:1027500075E00E947A1C0A891B8982EC98E00E942D
:10276000B843BC01C8014AE050E00E94F21B82EC71
:1027700098E00E943F432A893B89882321F0C901C0
:1027800062E773E003C0C9016AE773E00E947A1C44
:102790008A899B8983D7DF91CF911F910F910895EB
:1027A000CF93DF93AFDAC0915D07D0915E070DC084
:1027B000EA8DFB8DA081B18112962D913C911397EA
:1027C000CF0164E170E0F9011995EA89FB89A081E4
:1027D000B18114962D913C911597CF01F90119956E
:1027E000892B31F3EA89FB89A081B18118962D915B
:1027F0003C911997CF01F90119958936910511F18D
:102800008A36910554F483369105C1F086369105D8
:10281000B9F08934910529F517C082379105C1F0C7
:102820008337910524F48D369105D9F40FC0833791
:10283000910581F08A379105A1F40EC0D9DE1AC046
:10284000C5DD18C05ADD16C073DD14C0B4DA12C07D
:10285000D1DC10C075DB0EC082EC98E00E949D4474
:1028600009C08A899B8962EF75E00E947C1C8A8975
:102870009B8914D7DF91CF910895CF93DF93C091B7
:102880005D07D0915E078A899B8967E076E00E94A8
:102890007C1CEA8DFB8DA081B18112962D913C911B
:1028A0001397CF0168EE73E0F901199582EC98E077
:1028B0000E94A740882331F48A899B8967E376E0E8
:1028C0000E947A1C82EC98E064E070E00E94313D46
:1028D00086E291E5AFE4BEE38093DD089093DE08E5
:1028E000A093DF08B093E008E091C208F091C3081C
:1028F0000088F189E02D82EC98E01995AA8DBB8DB6
:10290000ED91FC9111970280F381E02DCD0168EEED
:1029100073E01995DF91CF9108950F931F93009164
:102920005D0710915E07D801ED91FC910190F08157
:10293000E02DC80160E070E040E050E019959DDFB7
:10294000F801A28DB38DED91FC911197028CF38D5E
:10295000E02DCD01199524DFFECF61E070E080C845
:10296000A0E0B0E0E6EBF4E10C946048EC01FB0180
:102970003197E532F10508F06DC3EE58FF4F0C9426
:102980009348E880F9800A811B81AC80BD80CE80AD
:10299000DF80C801B701A60195010E943C4523EFE5
:1029A00034E045E35FE34EC0288139814A815B8191
:1029B00061C2E880F9800A811B81AC80BD80CE8035
:1029C000DF80C801B701A60195010E943B4523EFB6
:1029D00034E045E35FE30E9471476C837D838E831F
:1029E0009F83C801B701A60195010E943C4523EFD2
:1029F00034E045E35FEB0E947147688379838A8303
:102A00009B8328C388819981AA81BB81B058888320
:102A10009983AA83BB838C819D81AE81BF8115C3BD
:102A2000EC80FD800E811F81A880B980CA80DB8088
:102A3000C601B501A80197010E943C4523EF34E08F
:102A400045E35FEB0E9471476C837D838E839F8398
:102A5000C801B701A60195010E943B4523EF34E070
:102A600045E35FE3C8CF88819981AA81BB812C812E
:102A70003D814E815F81E5C2E880F9800A811B813A
:102A8000AC80BD80CE80DF80C601B501A801970172
:102A90000E943B4523EF34E045E35FE30E9471472A
:102AA0006C837D838E839F83C801B701A601950146
:102AB0000E943C45D3CF8C819D81AE81BF817DC07A
:102AC000E880F9800A811B81AC80BD80CE80DF80E8
:102AD000C801B701A60195010E943B4523EF34E0F0
:102AE00045E35FE30E9471476C837D838E839F8300
:102AF000C801B701A60195010E943C4582C028810A
:102B000039814A815B818C819D81AE81BF818883BF
:102B10009983AA83BB832C833D834E835F837BC0D1
:102B2000EC80FD800E811F81A880B980CA80DB8087
:102B3000C801B701A60195010E943C4523EF34E08E
:102B400045E35FE352C088819981AA81BB81B05877
:102B500088839983AA83BB835EC0E880F9800A8159
:102B60001B81AC80BD80CE80DF80C601B501A8018D
:102B700097010E943B4523EF34E045E35FE30E9469
:102B800071476C837D838E839F83C801B701A60143
:102B900095010E943C4523EF34E045E35FEB35C0EF
:102BA00088819981AA81BB812C813D814E815F8181
:102BB0005058288339834A835B83B0588C839D8324
:102BC000AE83BF8328C0E880F9800A811B81AC8076
:102BD000BD80CE80DF80C801B701A60195010E94AB
:102BE0003C4523EF34E045E35FEB0E9471476C8383
:102BF0007D838E839F83C801B701A60195010E9442
:102C00003B4523EF34E045E35FE30E94714768836F
:102C100079838A839B8388859985AA85BB85B058EB
:102C200088879987AA87BB8715C288859985AA85D1
:102C3000BB852C813D814E815F81288739874A87FA
:102C40005B8703C2E884F9840A851B858C819D819A
:102C5000AE81BF8188879987AA87BB8717FB1095AC
:102C600017F91095EC82FD820E831F83A880B9802E
:102C7000CA80DB80C601B501A80197010E943C45CE
:102C800023EF34E045E35FE30E9471476C837D836B
:102C90008E839F83C601B501A8019701DDCE88858B
:102CA0009985AA85BB852C813D814E815F812887CE
:102CB00039874A875B87288139814A815B8188838C
:102CC0009983AA83BB832C833D834E835F83C2C1D8
:102CD000E884F9840A851B858C819D81AE81BF8142
:102CE00088879987AA87BB8717FB109517F91095D6
:102CF000EC82FD820E831F83A880B980CA80DB80AE
:102D0000C601B501A80197010E943B4523EF34E0BD
:102D100045E35FE30E9471476C837D838E839F83CD
:102D2000C601B501A801970160CE288539854A857D
:102D30005B858C819D81AE81BF81B05888879987E2
:102D4000AA87BB87C0CFE884F9840A851B858C815C
:102D50009D81AE81BF81B05888879987AA87BB873C
:102D6000EC82FD820E831F83A880B980CA80DB803D
:102D7000C601B501A80197010E943B453B014C01EA
:102D8000C601B501A80197010E943C4523EF34E03C
:102D900045E35FE30E9471476C837D838E839F834D
:102DA000C401B3015BCE88859985AA85BB852C813A
:102DB0003D814E815F815058288739874A875B87DC
:102DC000288139814A815B8159C0E884F9840A8568
:102DD0001B858C819D81AE81BF81B0588887998782
:102DE000AA87BB87EC82FD820E831F83A880B980EF
:102DF000CA80DB80C601B501A80197010E943C454D
:102E00003B014C01C601B501A80197010E943B4559
:102E100023EF34E045E35FE30E9471476C837D83D9
:102E20008E839F83C401B301E2CD288539854A850D
:102E30005B8562C088859985AA85BB852881398193
:102E40004A815B81288739874A875B87B0588883A6
:102E50009983AA83BB83FEC088859985AA85BB8593
:102E6000B05888879987AA87BB87288139814A818A
:102E70005B8150588C819D81AE81BF81B0581FCF3E
:102E800088819981AA81BB81288539854A855B859E
:102E90005058288739874A875B872C813D814E812E
:102EA0005F81288339834A835B83D0C08885998575
:102EB000AA85BB852C813D814E815F81B05818C0A9
:102EC0008C819D81AE81BF81B0588C839D83AE8300
:102ED000BF83288539854A855B8550580DC0888514
:102EE0009985AA85BB852C813D814E815F81505893
:102EF0008C839D83AE83BF8388819981AA81BB81A6
:102F0000B05867C088859985AA85BB852C813D818D
:102F10004E815F81B0588C839D83AE83BF8388814F
:102F20009981AA81BB81B05888839983AA83BB8386
:102F3000505815C088859985AA85BB852C813D810F
:102F40004E815F818C839D83AE83BF83888199810D
:102F5000AA81BB81B05888839983AA83BB832887C1
:102F600039874A875B8776C088859985AA85BB851E
:102F70002C813D814E815F81B0588C839D83AE83CF
:102F8000BF8388819981AA81BB8188879987AA8715
:102F9000BB87505822C08C819D81AE81BF81B058C3
:102FA0008C839D83AE83BF83288539854A855B8565
:102FB0000CC088859985AA85BB852C813D814E8171
:102FC0005F818C839D83AE83BF8388819981AA8131
:102FD000BB8188879987AA87BB87288339834A83DF
:102FE0005B8338C088859985AA85BB852C813D8106
:102FF0004E815F81E880F9800A811B8117FB109563
:1030000017F910955058288739874A875B87888336
:103010009983AA83BB83EC82FD820E831F831AC02F
:10302000288539854A855B858C819D81AE81BF81EC
:1030300088879987AA87BB87505888819981AA81F8
:10304000BB81288339834A835B83B0588C839D83FB
:10305000AE83BF83CDB7DEB7EEE00C947C48EF9231
:10306000FF920F931F93CF93DF93EC018B017C01B1
:1030700007C0E881F9810190F081E02DC701199521
:10308000F8010F5F1F4F6491662399F7CDB7DEB744
:10309000E6E00C948448FB019A0161E0AF013DC475
:1030A000FB019A0160E0AF0138C4A0E0B0E0EBE5BD
:1030B000F8E10C946C48AE81BF819E01265F3F4FC2
:1030C000ED91FC9111970488F589E02DCD0168857B
:1030D0007985A90119952096E2E00C948848A0E032
:1030E000B0E0E5E7F8E10C946C48AE81BF819E0149
:1030F000265F3F4FED91FC9111970288F389E02DF7
:10310000CD0168857985A90119952096E2E00C9496
:1031100088480F931F938C01DC01ED91FC91028490
:10312000F385E02D1995C801B9D21F910F9108952B
:10313000A7E1B0E0EEE9F8E10C945C4869837A839A
:103140008B839C835D874C870E87FE013196DC0163
:10315000CB01AC01BD016F7770702D83283010F06A
:1031600027E02D838381382F331F3327331F39877F
:10317000982F990F828187FD9F5F9923C1F4411594
:1031800051056105710519F589858260EC85FD851C
:10319000808380E090E3EC85FD85E80FF11D91834D
:1031A0008F5FFD81F817B8F720E030E070C29F3FD5
:1031B00009F072C2411551056105710521F4298597
:1031C0002460298769C239853860398765C2E92F4B
:1031D000F0E0FB87EA87969596959695892F90E083
:1031E000FC01E154FE4F24912887FC01EE0FFF1FE4
:1031F000EE0FFF1FE152FE4FA590B590C590D49001
:103200001A012B019501A60160E070E080E090E0DA
:1032100051016201EE24FF2400E010E00E948A02C6
:10322000EA85FB85E770F0700FE010E00E1B1F0BC6
:103230000E948304922E832E742E652E562E372ED6
:103240008D8B9E8B1F82442410E000E48AE7F82EC9
:10325000B0E1EB2EA3EFDA2EFAE5CF2EBB24AA24A1
:10326000F0E3FE83B92DB11B91E09B1608F090E0CE
:10327000882D801B21E0881608F020E0582F591B6C
:1032800091E0851708F090E0292B872D8F1931E008
:10329000781608F030E0682F621B91E0861708F07E
:1032A00090E0392B862D8E1921E0681608F020E079
:1032B000782F731B91E0871708F090E0292B852D5C
:1032C0008D1931E0581608F030E0E82FE21B91E04C
:1032D0008E1708F090E0392B832D8C1921E03816D9
:1032E00008F020E0F82FF31B91E08F1708F090E032
:1032F000292B8D898B1991E03D89381708F090E0D2
:10330000A82FA21B21E08A1708F020E0922B4E89FB
:103310004A19491B9B2E852E762E672E5E2E3F2E38
:10332000AD8B4E8B47FD04C08E818F5F8E839ACF0D
:103330009B2F910F9F8B91E02F892B1708F090E026
:10334000852F800F21E0851708F020E0980F9F87D8
:1033500091E03F85381708F090E0292B862F8F0DDC
:1033600031E0861708F030E0280F288B91E028170D
:1033700008F090E0392B872F8E0D21E0871708F099
:1033800020E0380F398B91E0381708F090E0292BB6
:103390008E2F8D0D31E08E1708F030E0280F2A8B2C
:1033A00091E0281708F090E0392B8F2F8C0D21E049
:1033B0008F1708F020E0380F3B8B91E0381708F0AA
:1033C00090E0292B8A2F8B0D31E08A1708F030E02E
:1033D000280F2C8B91E0281708F090E0232E292A43
:1033E0004A0D240E9F888F84788869885A883B8884
:1033F0008C898D8B2E8A212F302F4F2D5E2D6D2D98
:103400007C2D8B2D9A2DEAE0AE2EBB24CC24DD241E
:10341000EE24FF2400E010E00E940805122F032F85
:10342000F42EE52ED62EC72EB82EA92E9F819923D5
:10343000D9F4EE81E03321F4F885F150F88712CF0A
:103440002E85222371F088858F5F18160CF081E09D
:103450003E853150380F3E878D81381728F43D83E3
:1034600003C09D819F5F9D834394EE81EA331CF0EE
:10347000842D99E313C0EC85FD85E40DF11D2E81AB
:10348000208331E03F838D81481608F4E9CE09C0DE
:10349000EC85FD85E80FF11D908381508823C1F7ED
:1034A000EAC0212F302F4F2D5E2D6D2D7C2D8B2DC1
:1034B0009A2D01E00E940404122FF32EE42ED52E43
:1034C000C62EB72EA82E892E02E00E940404B92F22
:1034D000210FE1E0211708F0E0E03F0DF1E03F159A
:1034E00008F0F0E09E2E930EE1E0931608F0E0E085
:1034F000FE2B4E0DA1E04E1508F0A0E0FF2EF40EBD
:10350000E1E0F41608F0E0E0AE2B5D0DF1E05D15B2
:1035100008F0F0E00A2F050FE1E0051708F0E0E001
:10352000FE2B6C0DA1E06C1508F0A0E01F2F160F0C
:10353000E1E0161708F0E0E0AE2B7B0DF1E07B1523
:1035400008F0F0E0A70FE1E0A71708F0E0E0FE2B9D
:103550008A0D91E08A1508F090E0F80FE1E0F81785
:1035600008F0E0E09E2BB80D392D4F2D502F612F24
:103570007A2F8F2F9B0F01E00E948304F82F8F89F1
:10358000821B21E0EF89E81708F020E08F85831B7C
:10359000382FE1E08F85831708F0E0E0832F821B4E
:1035A00021E0381708F020E0E22B2889241B422F65
:1035B00031E08889821708F030E0842F8E1B21E0EB
:1035C000481708F020E0322BE989E51B5E2F41E027
:1035D00029892E1708F040E0852F831B21E058171A
:1035E00008F020E0422B3A89361B632F31E08A89AC
:1035F000861708F030E0862F841B21E0681708F05A
:1036000020E0322BEB89E71B7E2F41E02B892E1720
:1036100008F040E0872F831B21E0781708F020E0B6
:10362000422B2C892F1B31E08C89821708F030E067
:10363000822F841B41E0281708F040E0342B291A20
:10364000231ACAF41BC0EC85FD85E40DF11D8081B1
:103650008F5F80838A3391F421E0421649F481E33D
:10366000808338853F5F388789858061898706C078
:1036700090834A9401C090E3442029F72985EC8582
:10368000FD8520838885282F332727FD3095C901A4
:103690006796E2E10C947848606899CDEF92FF92CA
:1036A0000F931F938C01DC01ED91FC910190F0814F
:1036B000E02D6DE019957C01D801ED91FC91019010
:1036C000F081E02DC8016AE019959C012E0D3F1D87
:1036D000C9011F910F91FF90EF900895CF93DF9351
:1036E000DB010D900020E9F71197A61BB70BEC0149
:1036F000E881F9810280F381E02DAD011995DF9118
:10370000CF9108954F925F927F928F929F92AF9246
:10371000BF92CF92DF92EF92FF920F931F93DF93AE
:10372000CF93CDB7DEB7A1970FB6F894DEBF0FBE2B
:10373000CDBF2C01742ECB01223008F42AE019A24F
:1037400031E2C32ED12CCC0EDD1E822E9924AA2468
:10375000BB24672D752FA50194010E943A48790179
:103760008A01C801B701A50194010E94F447472DC1
:10377000461B0894C108D1084A3014F4405D01C0CA
:10378000495CF6014083E114F1040105110521F0C3
:103790007E2C5F2DC801DDCFC201B6019FDFA1964F
:1037A0000FB6F894DEBF0FBECDBFCF91DF911F9152
:1037B0000F91FF90EF90DF90CF90BF90AF909F90D0
:1037C0008F907F905F904F900895DC012115310517
:1037D00041F4ED91FC910190F081E02D642F199559
:1037E000089590CFEF92FF920F931F939A017B0160
:1037F00000E010E0B801A701E8DF1F910F91FF90F2
:10380000EF900895EF92FF920F931F939A01E62E87
:10381000FF2400E010E0B801A701D7DF1F910F914E
:10382000FF90EF900895A0E0B0E0E9E1FCE10C9496
:103830006648EC016A017B012115310541F4E881FC
:10384000F9810190F081E02D642F19951DC02A3077
:103850003105C9F477FF16C0E881F9810190F08144
:10386000E02D6DE219958C0144275527BA014C19BA
:103870005D096E097F09CE012AE044DF9801280F17
:10388000391F03C02AE03EDF9C01C901CDB7DEB776
:10389000E8E00C948248EF92FF920F931F937B0114
:1038A0009A010027F7FC0095102FB801A701BBDF94
:1038B0001F910F91FF90EF900895CF92DF92EF92BA
:1038C000FF920F931F936C017B019A010027F7FC75
:1038D0000095102FB801A701A6DF8C01C601DEDE1E
:1038E000080F191FC8011F910F91FF90EF90DF90F3
:1038F000CF900895F3CE0895EF92FF920F931F9308
:103900007C01ECDE8C01C701C9DE080F191FC8015C
:103910001F910F91FF90EF900895A5E1B0E0E3E9CA
:10392000FCE10C945C485C01598B488B6901262FA3
:1039300030E0217030703B8B2A8BAAE06A2EAE01FA
:103940004F5F5F4F5D8B4C8B888999890196AA895F
:10395000BB89AB2B31F0E889F989998B888B04916D
:1039600005C0E889F9890081998B888B002309F4C7
:103970000DC4053299F401962A893B89232B31F035
:10398000E889F989998B888B049105C0A889B98940
:103990000C91998B888B0532B1F40BC00A3049F435
:1039A000D501ED91FC910190F081E02DC5016DE014
:1039B0001995D501ED91FC910190F081E02DC501A3
:1039C000602F1995C1CF9C012F5F3F4FFC0110E084
:1039D00077249924F98BE88B1032B0F40B3269F01C
:1039E0000C3228F4003251F0033271F40BC00D3266
:1039F00039F0003349F4116026C01260146023C00E
:103A0000186021C010611FC017FD2EC0802F805389
:103A10008A3068F416FF05C0969C902C1124980EED
:103A200012C0769C702C1124780E10620CC00E32DD
:103A300021F416FDABC3106406C00C3611F41068F7
:103A400002C0083689F44A895B89452B21F0398BFD
:103A5000288B049103C00081398B288B2F5F3F4F47
:103A60003196002309F0B6CF802F8554833020F49F
:103A7000812F8061005E07C0802F8556833008F05B
:103A8000F6C1812F8F7ED6011496BF87AE87F601CF
:103A9000208031804280538086FD02C0F6E09F2E58
:103AA000EFE3FE2EF822053619F4F0E4FF2A07C0F2
:103AB000063619F420E8F22A02C091109A94F7FE13
:103AC0000FC0C201B1019F772FE736E948E15BE4FF
:103AD0000E946647181624F43FE3F32240E4F42AD8
:103AE000F7FE0BC05BE3591520F427E07CE3872E3B
:103AF0000DC0892C839427E009C08AE0891520F441
:103B00006AE0962E2AE001C0292D88248DE0AC8938
:103B1000BD891D928A95E9F7C201B101AE014F5FDF
:103B20005F4F082D05DB6C010981202E332400FF37
:103B300004C003FD02C01DE209C0F1FE02C01BE289
:103B400005C0F2FC02C010E001C010E2C1018C709F
:103B50009070892B09F443C0112311F483E001C054
:103B600084E0871510F077240EC0781AF3FC0BC0A0
:103B7000D501ED91FC910190F081E02DC50160E24D
:103B800019957A94A9F7112349F0D501ED91FC918B
:103B90000190F081E02DC501612F199523FC03C030
:103BA00003E612E012C00FE512E00FC0E114F104C9
:103BB00009F06052D501ED91FC910190F081E02D6A
:103BC000C50119950F5F1F4F05C0EF2CFF24B0E111
:103BD000EB22FF24F8016491662341F745C1F7FE0B
:103BE00012C08C0C24FE04C08A81813309F48A94AB
:103BF00018141CF0882483942DC0F8E0F81550F5B3
:103C000058E0852E27C0F6FC25C0892D90E08C1544
:103C10009D054CF02CEFC2162FEFD20624F030E8B1
:103C2000F32A01C09A94992049F0E2E0F0E0EC0F09
:103C3000FD1FE90DF11D80818033A1F3F7FE0AC05D
:103C4000892C8394892D90E0C816D90614F0992404
:103C500001C09C18F7FC03C025E030E009C01C142B
:103C60001D041CF021E030E003C096012F5F3F4FA0
:103C7000112311F02F5F3F4F992029F0892D90E0FB
:103C80000196280F391F872D90E02817390714F067
:103C9000772401C0721A4F2C5524C201897090708C
:103CA000892B59F00CC0D501ED91FC910190F08168
:103CB000E02DC50160E219957A947720A1F71123D0
:103CC00049F0D501ED91FC910190F081E02DC50105
:103CD000612F199543FE0BC00CC0D501ED91FC91ED
:103CE0000190F081E02DC50160E319957A94772069
:103CF000A1F7F7FE4FC08601D7FE02C000E010E03A
:103D000076010894E11CF11CE01AF10AE1E0F0E010
:103D1000EC0FFD1FEE0EFF1E260148185108892DDD
:103D200090E088249924881A990AFFEF0F3F1F0713
:103D300049F4D501ED91FC910190F081E02DC50190
:103D40006EE21995C016D10634F0401651061CF4E7
:103D5000F701608101C060E30150104008151905AA
:103D600034F00894E11CF11C662309F006C20C151E
:103D70001D0539F48A81863340F4853311F424FE1D
:103D800004C0662309F470C001C061E3D501ED9160
:103D9000FC9165C06A81613309F00F7ED501ED9118
:103DA000FC910190F081E02DC50119959920E1F079
:103DB000D501ED91FC910190F081E02DC5016EE2FD
:103DC000199512E0E1E0F0E0EC0FFD1FE10FF11DAD
:103DD00060811F5FD501ED91FC910190F081E02D94
:103DE000C50119959A9471F7D501ED91FC91019057
:103DF000F081E02D44FC02C065E601C065E4C50128
:103E00001995D7FC05C0C114D10441F404FF06C0C4
:103E1000D094C194D108D3946DE201C06BE2D50176
:103E2000ED91FC910190F081E02DC501199560E3C1
:103E300005C06F5FE6EFFFEFCE0EDF1EFAE0CF1694
:103E4000D104BCF7D501ED91FC910190F081E02DFA
:103E5000C5011995D501ED91FC916C2D605D019026
:103E6000F081E02DC5011995CE84DF8483C103362E
:103E700031F0033799F0033509F06FC027C0F60120
:103E800080818983CE010196882E092F22E030E0BF
:103E9000C20ED31E41E0E42EF12C14C0D6018C904A
:103EA00011960C9116FD03C06FEF7FEF02C0692DD4
:103EB00070E0E2E0F0E0CE0EDF1E882D902F0E9431
:103EC000670E7C013FE7932E912217C0D6018C909C
:103ED00011960C9116FD03C06FEF7FEF02C0692DA4
:103EE00070E0E2E0F0E0CE0EDF1E882D902F0E9401
:103EF0004C0E7C0120E8922E912A93FE0EC0E82DF4
:103F0000F02F8F0126C0D501ED91FC910190F08139
:103F1000E02DC50160E219957A94872D90E0E816AE
:103F2000F90688F3ECCFD501ED91FC912081318128
:103F300097FE03C0F801649102C0D8016C91C501DD
:103F4000F901199571107A940894E108F1080F5F4E
:103F50001F4FE114F10439F70DC1043611F0093691
:103F600089F517FF0AC0F601208131814281538112
:103F700084E090E0C80ED91E0CC0D6018D919C91B2
:103F80009C01442737FD4095542FE2E0F0E0CE0E2F
:103F9000DF1E9FE6F92EF12257FF09C0509540958C
:103FA000309521953F4F4F4F5F4FF0E8FF2ACA01F0
:103FB000B901AE014F5F5F4F2AE0ECD0E82E2C89AB
:103FC000E21A40C0053721F41F7E2AE030E01CC011
:103FD000197F0F3661F0003720F4083509F0D6C09C
:103FE0000FC0003739F0083709F0D0C004C028E00E
:103FF00030E00AC0106114FD146020E130E004C01C
:1040000014FD166020E132E017FF08C0D6016D9163
:104010007D918D919C91E4E0F0E008C0D6018D91F6
:104020009C91BC0180E090E0E2E0F0E0CE0EDF1E6B
:10403000AE014F5F5F4FAED0E82EFC89EF1A8FE7DD
:10404000F82EF122F6FE0BC02EEFF222E91438F41E
:10405000F4FE07C0F2FC05C03FEEF32202C01E2DA5
:1040600001C0192DF4FE0DC0FE01EE0DF11D808181
:10407000803319F449EEF42208C01F5FF2FE05C038
:1040800003C08F2D867809F01F5F0F2DF3FC18C039
:10409000F0FE13C0171510F09E2C0FC09E2C970C2D
:1040A000911A172D0AC0D501ED91FC910190F08174
:1040B000E02DC50160E219951F5F1715A0F304C03C
:1040C000171510F4711A01C0772404FF17C0D50129
:1040D000ED91FC910190F081E02DC50160E319950F
:1040E00002FF29C0D501ED91FC910190F081E02DF6
:1040F00001FD02C068E712C068E510C0802F867815
:10410000D1F001FF02C06BE201C060E2F7FC6DE29A
:10411000D501ED91FC910190F081E02DC50119953B
:104120000AC0D501ED91FC910190F081E02DC5010F
:1041300060E319959A94E914A0F3EA94D501ED91FE
:10414000FC91A1E0B0E0AC0FBD1FAE0DB11D019020
:10415000F081E02DC5016C911995EE2071F70AC030
:10416000D501ED91FC910190F081E02DC50160E257
:1041700019957A947720A1F7E7CBD501ED91FC91C1
:104180000190F081E02DC5011995CFCD6596E2E152
:104190000C947848A0E0B0E0E0EDF0E20C945D48CB
:1041A000EA01283089F4262F2770205D43E0969598
:1041B0008795779567954A95D1F7611571058105C2
:1041C000910589F7288379C22031A9F4362F3F70F1
:1041D000232F205D2A3308F0295F299334E0969538
:1041E0008795779567953A95D1F7611571058105A2
:1041F000910561F762C25B016C01EE24FF24870127
:104200003A2C8A2D8E7FEB2DFC2DAD2DBE2D9F2DB2
:10421000802E012F22E0F22EF80E31E0F81608F081
:1042200030E0132F1E0F41E01E1708F040E0E42E8F
:10423000EF0E51E0EF1608F050E0D52EDA0E61E0F7
:10424000DA1608F060E0C62ECB0E71E0CB1608F04F
:1042500070E0A72EA90E81E0A91608F080E0982E44
:10426000980C21E0981408F020E0B22EB00E2F2D0B
:10427000312F4E2D5D2D6C2D7A2D892D9B2D01E03A
:104280000E948503A32FB42F052F762E672E582E5C
:10429000492E822E8F0CF1E0821608F0F0E03A2FC2
:1042A000310FE1E03A1708F0E0E0FF2EF30E21E0D5
:1042B000F31608F020E0E22B4B2F4E0D31E04B17A8
:1042C00008F030E0EE2EE40E21E0E41608F020E0E5
:1042D000322B502F5D0D41E0501708F040E0D32EF7
:1042E000D50E21E0D51608F020E0422B672D6C0D8D
:1042F00031E0671508F030E0C42EC60E21E0C61686
:1043000008F020E0322B762D7A0D41E0761508F08A
:1043100040E0A32EA70E21E0A71608F020E0422BD4
:10432000852D890D21E0851508F020E0942E980E4A
:1043300091E0981608F090E0122F192BB40C1B0D89
:10434000282D3F2D4E2D5D2D6C2D7A2D892D912FF1
:1043500004E00E948503A32FB42F052F762E672E2D
:10436000582E492E820EF1E0821608F0F0E03A2F26
:104370003F0DE1E03A1708F0E0E0BF2EB30E21E078
:10438000B31608F020E0E22B4B2F4E0D31E04B1717
:1043900008F030E0EE2EE40E21E0E41608F020E014
:1043A000322B502F5D0D41E0501708F040E0D32E26
:1043B000D50E21E0D51608F020E0422B672D6C0DBC
:1043C00031E0671508F030E0C42EC60E21E0C616B5
:1043D00008F020E0322B762D7A0D41E0761508F0BA
:1043E00040E0A32EA70E21E0A71608F020E0422B04
:1043F000852D890D21E0851508F020E0942E980E7A
:1044000091E0981608F090E0F22EF92A140DF10EC2
:10441000282D3B2D4E2D5D2D6C2D7A2D892D9F2D18
:1044200008E00E948503A32FB42F152F062F772EA7
:10443000682E592E820EF1E0821608F0F0E03A2F35
:104440003B0DE1E03A1708F0E0E0BF2EB30E21E0AB
:10445000B31608F020E0E22B4B2F4E0D31E04B1746
:1044600008F030E0EE2EE40E21E0E41608F020E043
:10447000322B512F5D0D41E0511708F040E0D32E53
:10448000D50E21E0D51608F020E0422B602F6C0DF0
:1044900031E0601708F030E0C42EC60E21E0C616E9
:1044A00008F020E0322B772D7A0D41E0771508F0E7
:1044B00040E0A32EA70E21E0A71608F020E0422B33
:1044C000862D890D21E0861508F020E0942E980EA7
:1044D00091E0981608F090E0122F192BF50C1F0DA3
:1044E000282D3B2D4E2D5D2D6C2D7A2D892D912F54
:1044F00000E10E948503A32FB42F052FF62E772EFF
:10450000682E592E820EF1E0821608F0F0E03A2F64
:104510003B0DE1E03A1708F0E0E0BF2EB30E21E0DA
:10452000B31608F020E0E22B4B2F4E0D31E04B1775
:1045300008F030E0EE2EE40E21E0E41608F020E072
:10454000322B502F5D0D41E0501708F040E0D32E84
:10455000D50E21E0D51608F020E0422B6F2D6C0D12
:1045600031E06F1508F030E0C42EC60E21E0C6160B
:1045700008F020E0322B772D7A0D41E0771508F016
:1045800040E0A32EA70E21E0A71608F020E0422B62
:10459000862D890D21E0861508F020E0942E980ED6
:1045A00091E0981608F090E0F22EF92A150DF10E20
:1045B000282D3B2D4E2D5D2D6C2D7A2D892D9F2D77
:1045C00000E20E948503A32FB42F152F062F772E0C
:1045D000682E592E820EF1E0821608F0F0E03A2F94
:1045E0003B0DE1E03A1708F0E0E0BF2EB30E21E00A
:1045F000B31608F020E0E22B4B2F4E0DF1E04B17E5
:1046000008F0F0E0EE2EE40E21E0E41608F020E0E1
:10461000F22B512F5D0DE1E0511708F0E0E0BF2FC4
:10462000B50F21E0B51708F020E0E22B602F6C0DEC
:10463000F1E0601708F0F0E0AE2FA60F21E0A6171A
:1046400008F020E0F22B772D7A0DE1E0771508F0E5
:10465000E0E0F70F21E0F71708F020E0E22B862DCD
:10466000890D91E0861508F090E0E80F21E0E81749
:1046700008F020E0922BF50C282D3B2D4E2D5B2FC2
:104680006A2F7F2F8E2F9F0D04E00E948503590112
:104690006A017B018C0120E3320E8A2D26EFA29E57
:1046A000902D1124930D99938B29842B8D29862B82
:1046B0008F29802B812B09F0A3CDCE01CDB7DEB79A
:1046C000E1E10C947948EF92FF920F931F93FC0164
:1046D0002FB7F894858196812FBF23857C0100E058
:1046E00010E02E3F59F460E070E381E190E0A80112
:1046F00097010E943A48CA01B90102C0C801B70136
:104700000E943D461F910F91FF90EF9008958F9268
:104710009F92AF92BF92CF92DF92EF92FF920F9350
:104720001F938C01E0915D07F0915E07A685B78528
:10473000ED91FC9111970280F381E02DCD016EEF98
:1047400070E01995DC01ED91FC910190F081E02D74
:1047500019956B017C01D801ED91FC910190F081DC
:10476000E02DC80119954B015C01C701B60120E09D
:1047700030E04AE755E40E94A04588235CF40F2E00
:10478000F0E0CF2EF0E0DF2EFAE7EF2EF5E4FF2E7B
:10479000F02D14C0C701B60120E030E84BEB55E422
:1047A0000E946647181654F40F2EF0E0CF2EF0E862
:1047B000DF2EFBEBEF2EF5E4FF2EF02DC501B4014B
:1047C000A70196010E9471472FE632E143E855E3C5
:1047D0000E9471471F910F91FF90EF90DF90CF9053
:1047E000BF90AF909F908F900895A0E0B0E0EBEF66
:1047F000F3E20C946448EC018B858E3F61F4E88110
:10480000F9810280F381E02DCE0119952FE632E186
:1048100043E85AE355C0E0915D07F0915E07A68535
:10482000B785ED91FC9111970280F381E02DCD01C8
:104830006EEF70E01995DC01ED91FC910190F08133
:10484000E02D19957B018C01E881F9810280F381CB
:10485000E02DCE0119955B016C01C801B70120E084
:1048600030E04AE755E40E94A04588235CF40F2E0F
:10487000F0E0EF2EF0E0FF2EFAE70F2FF5E41F2F08
:10488000F02D14C0C801B70120E030E84BEB55E42F
:104890000E946647181654F40F2EF0E0EF2EF0E851
:1048A000FF2EFBEB0F2FF5E41F2FF02DC601B501F6
:1048B000A80197010E9471472FE632E143E855E3D2
:1048C0000E947147E62F2E2F372F482F592FB901FD
:1048D000CA01CDB7DEB7EAE00C948048DC01ED9167
:1048E000FC910190F081E02D19952AE038E240EA30
:1048F0005BE30C947147EF92FF920F931F93CF935A
:10490000DF938C01E62EFC018385681709F441C012
:10491000862F8E5F823058F1C0915D07D0915E077F
:10492000EC89FD89A081B1811A962D913C911B974C
:10493000CF01F9011995F82EFFEF8F17C1F0AC895F
:10494000BD89ED91FC9111970280F381E02DCD019D
:104950006F2D40E01995AC89BD89ED91FC911197BF
:104960000680F781E02DCD016F2D40E019952FB71E
:10497000F894F80114821382128280E090E0A0E0A3
:10498000B0E087839087A187B28716821582E3867D
:104990002FBFCDB7DEB7E6E00C948448FC0183E678
:1049A00097E09183808312821482138280E090E0EA
:1049B000A0E0B0E087839087A187B2878FEF8387DD
:1049C000848716861586CF0196CFFC0164870895EB
:1049D000FC01768765870895A0E0B0E0E2EFF4E29D
:1049E0000C946448EC018A81882329F4AF80E88420
:1049F000F985EA8527C02FB7F8946B817C81EA801E
:104A00001C821B821A822FBF80E090E00E943D46EC
:104A10005B016C01FF2400E010E0C801B7010E94B7
:104A20003D469B01AC01C601B5010E94A445A62EDE
:104A3000E72EF82FE92FAC01CB01DA018F8398879D
:104A4000A987BA872A2D3E2D4F2F5E2FB901CA01A3
:104A5000CDB7DEB7EAE00C948048FC0183858E3F39
:104A600099F4CF01B9DF0E9411469B01AC0140E0EF
:104A700050E060E070E381E190E00E943A48CA01B2
:104A8000B9010E943D4602C0CF01A6CF0895FF9212
:104A90000F931F93CF93DF93EC016C856F3F51F120
:104AA00000915D0710915E07F801A489B589ED9129
:104AB000FC9111970284F385E02DCD011995F82E14
:104AC000F801A489B589ED91FC9111970280F381D9
:104AD000E02DCD016F2D41E01995F801A489B5892C
:104AE000ED91FC9111970680F781E02DCD016F2D9E
:104AF00041E019958D859E85892B91F0E0915D07A8
:104B0000F0915E07A28DB38DED91FC911197048019
:104B1000F581E02DCD0119956F87788B898B9A8B64
:104B20002B852E3F49F480917B00877F80937B000B
:104B30008EE580937C000EC02F3F61F080917B005A
:104B4000922F9870877F982B90937B00277020641A
:104B500020937C00CDB7DEB7E5E00C948548FF924A
:104B60000F931F93FC0164856F3F51F100915D0726
:104B700010915E07F801A489B589ED91FC91119718
:104B80000284F385E02DCD011995F82EF801A48952
:104B9000B589ED91FC9111970280F381E02DCD0153
:104BA0006F2D41E01995F801A489B589ED91FC912B
:104BB00011970680F781E02DCD016F2D40E019950A
:104BC0001F910F91FF900895CF93DF93EC018D8596
:104BD0009E85892B01F1E0915D07F0915E07A28D22
:104BE000B38DED91FC9111970480F581E02DCD01FD
:104BF0001995E0E02F85388949895A89621B730B22
:104C0000840B950B2D853E8540E050E062177307BD
:104C10008407950708F0E1E08E2FDF91CF9108958A
:104C2000FC0183819481860F971F9483838376830D
:104C3000658382818F3340F0838194819695879537
:104C40009483838380E202C082818F5F8283089590
:104C5000CF93DF93DC015A96ED91FC915B97EC309A
:104C6000F105ECF0C0915D07D0915E07AA89BB8980
:104C7000ED91FC9111970284F385E02DCD0167E65B
:104C800072E01995AA8DBB8DED91FC911197028070
:104C9000F381E02DCD0168EE73E01995E7CF3196F1
:104CA000EE0FFF1FEA0FFB1F718360832FB7F8948D
:104CB0005A968D919C915B9701965B969C938E93EF
:104CC0005A972FBF019751F4809164008E7F809393
:104CD000640080917A00806880937A00DF91CF91A0
:104CE0000895A6E0B0E0E7E7F6E20C946A488C018C
:104CF000E0915D07F0915E07228D338DD901ED9132
:104D0000FC910484F585E02D8CE996E2A0E0B0E00A
:104D10008B839C83AD83BE831A830983C901BE0143
:104D20006F5F7F4F1995C801005E1F4FB80190DF7C
:104D30002696E4E00C948648CF93DF93EC01EC8D4B
:104D4000FD8D3196EE0FFF1FE80FF91F0190F081E6
:104D5000E02D83858F3F21F4CF0160E070E02EC00D
:104D600080917A0086FD48C08A8D9B8D892B09F43D
:104D700043C08E8D9F8D01969F8F8E8F029720F05E
:104D8000CF0122DF882331F480917A008064809300
:104D90007A0032C01F8E1E8E80917800209179009B
:104DA000EC8DFD8D3196EE0FFF1FEC0FFD1F722F66
:104DB00060E090E0682B792B8081918131DFEC8D70
:104DC000FD8D3196EE0FFF1FEC0FFD1F808191814D
:104DD000C6DE8C8D9D8D6A8D7B8D01960E94274845
:104DE000FC019D8F8C8F3196EE0FFF1FEC0FFD1F86
:104DF000808191814CDEC8CFDF91CF910895DF9201
:104E0000EF92FF920F931F937C01D62E83E190E0E7
:104E10000E94AD14182F092F6D2DC0DDC701612F21
:104E2000702F16DF812F902F1F910F91FF90EF9021
:104E3000DF9008956E3F710521F49C01205E3F4F85
:104E400002C0DDDF9C01C9010895FC0187E797E0FE
:104E500091838083CF0180966EEFA0CD08951F923D
:104E60000F920FB60F920BB60F9211242F933F9310
:104E70004F935F936F937F938F939F93AF93BF9362
:104E8000EF93FF93E0911D09F0911E09309709F00F
:104E90001995FF91EF91BF91AF919F918F917F9164
:104EA0006F915F914F913F912F910F900BBE0F909B
:104EB0000FBE0F901F90189570E0CB018B509C4F48
:104EC000FC01249162557C4FFB0184918823C1F041
:104ED000E82FF0E0EE0FFF1FE05AFC4FA591B491D0
:104EE000442341F49FB7F8948C91209582238C93AE
:104EF0009FBF08959FB7F8948C91822B8C939FBF8E
:104F00000895603110F08FEF0895862F8A5C089520
:104F1000462F50E0CA018B509C4FFC012491425512
:104F20005C4FFA018491882311F440E011C090E0B5
:104F3000880F991F8C569C4FFC01A591B4918C91C0
:104F400040E090E030E082239323892B09F041E098
:104F5000842F0895262F30E0C9018B509C4FFC010F
:104F6000949122553C4FF90184918823A1F0E82FB8
:104F7000F0E0EE0FFF1FE658FC4FA591B4912FB75C
:104F8000F894442321F48C919095892302C08C914C
:104F9000892B8C932FBF0895462F50E0CA018B5068
:104FA0009C4FFC01249142555C4FFA018491882367
:104FB00071F090E0880F991F86589C4FFC01A591D5
:104FC000B4919FB7F8948C9182278C939FBF0895DA
:104FD0002430A0F4663091F49FB7F89450931E09E2
:104FE00040931D0980916A002295207F8F7C822B3F
:104FF00080936A00EE9A9FBF81E0089580E0089553
:10500000FC0122818381E82FF0E0EE0FFF1FE05AC0
:10501000FC4FA591B491662331F49FB7F8948C911D
:105020002095822304C09FB7F8948C91822B8C9397
:105030009FBF0895CF93DF93DC0113968C91139754
:1050400090E0880F991F8C569C4FFC01C591D4911C
:10505000288140E030E012968C9190E0282339239B
:10506000232B09F041E0842FDF91CF910895FC01BB
:1050700092818381E82FF0E0EE0FFF1FE658FC4F8E
:10508000A591B4912FB7F894662321F48C91909553
:10509000892302C08C91892B8C932FBF0895CF93C5
:1050A000DF93DC0113968C91139790E0880F991F82
:1050B00086589C4FFC01C591D4912FB7F8948881F4
:1050C00012969C91892788832FBFDF91CF910895F5
:1050D0000F931F938C01DC01ED91FC910280F38111
:1050E000E02D67E140E01995D801ED91FC91048035
:1050F000F581E02DC80167E1199590E0882309F456
:1051000091E0892F1F910F9108950F931F939B0199
:10511000CB018B509C4FFC01049122553C4FF9016F
:105120001491112319F4E0E0F0E00BC084E090E06A
:105130000E94AD14FC018FE797E091838083028386
:105140001383CF011F910F91089580E090E008959F
:10515000089580E0089580E008951F920F920FB6A1
:105160000F920BB60F9211242F938F939F93EF936F
:10517000FF932091C60090912A0A9F5F80912C0A8C
:10518000982380912B0A981759F080912A0AE09170
:105190002D0AF0912E0AE80FF11D208390932A0A20
:1051A000FF91EF919F918F912F910F900BBE0F90D8
:1051B0000FBE0F901F9018951F920F920FB60F926F
:1051C0000BB60F9211248F939F93EF93FF939091BF
:1051D0003F0A80913E0A9817A1F080913F0AE09122
:1051E000410AF091420AE80FF11D80818093C600C8
:1051F00080913F0A8F5F9091400A892380933F0AF4
:105200000BC090913E0A80913F0A981729F4809133
:10521000C1008F7D8093C100FF91EF919F918F918D
:105220000F900BBE0F900FBE0F901F9018951F92FE
:105230000F920FB60F920BB60F9211242F938F93EC
:105240009F93EF93FF932091CE0090912F0A9F5F41
:105250008091310A98238091300A981759F08091F3
:105260002F0AE091320AF091330AE80FF11D2083F2
:1052700090932F0AFF91EF919F918F912F910F9013
:105280000BBE0F900FBE0F901F9018951F920F929C
:105290000FB60F920BB60F9211248F939F93EF933B
:1052A000FF939091440A8091430A9817A1F080914E
:1052B000440AE091460AF091470AE80FF11D808107
:1052C0008093CE008091440A8F5F9091450A892394
:1052D0008093440A0BC09091430A8091440A981726
:1052E00029F48091C9008F7D8093C900FF91EF91CF
:1052F0009F918F910F900BBE0F900FBE0F901F903C
:1053000018951F920F920FB60F920BB60F921124A1
:105310002F938F939F93EF93FF932091D6009091BB
:10532000340A9F5F8091360A98238091350A981736
:1053300059F08091340AE091370AF091380AE80F69
:10534000F11D20839093340AFF91EF919F918F91EB
:105350002F910F900BBE0F900FBE0F901F901895BE
:105360001F920F920FB60F920BB60F9211248F93CC
:105370009F93EF93FF939091490A8091480A981761
:10538000A1F08091490AE0914B0AF0914C0AE80F94
:10539000F11D80818093D6008091490A8F5F9091A2
:1053A0004A0A89238093490A0BC09091480A809148
:1053B000490A981729F48091D1008F7D8093D100FC
:1053C000FF91EF919F918F910F900BBE0F900FBEA9
:1053D0000F901F901895FC012FE139E03383228351
:1053E00083E399E09583848387E499E097838683B8
:1053F000118610868CE799E09387828784E899E08C
:105400009587848780E999E09787868783EC99E080
:10541000918B808B338B228B85EC99E0958B848BE1
:1054200087EC99E0978B868B89ED99E0918F808F3F
:105430008BED99E0938F828F82EE99E0958F848F28
:1054400081EA97E0918380830895CF92DF92EF9273
:10545000FF920F931F937C01FC01A28DB38DED9100
:10546000FC91119784EEC82E89E0D82E0190F0812E
:10547000E02DCD01B6011995F701A281B381ED911F
:10548000FC911197008CF18DE02DCD0140E052ECA4
:1054900061E070E020E830E000E810E01995F701E5
:1054A000A689B789ED91FC9111970190F081E02DCB
:1054B000CD01B6011995F701A08DB18DED91FC914B
:1054C00011970190F081E02DCD0160E070E0199519
:1054D000F701A485B585ED91FC9111970190F081BC
:1054E000E02DCD0160E070E01995F701A285B3854C
:1054F000ED91FC9111970190F081E02DCD0119956E
:10550000F701A285B385ED91FC9111970480F58197
:10551000E02DCD0164E670E01995F701A685B78509
:10552000ED91FC9111970190F081E02DCD0160E0AB
:1055300070E01995709A5A9AE2E0F1E080818160FA
:1055400080831F910F91FF90EF90DF90CF9008958F
:105550008F92AF92CF92EF92FF920F931F938FE1B2
:1055600099E060E045EC50E024EC30E000EC10E025
:10557000B1ECEB2EF12CCC24C394A8E9AA2EF0E2D6
:105580008F2E0E94DE3983E399E061E04DEC50E01C
:105590002CEC30E008EC10E0E9ECEE2EF12C0E944F
:1055A000DE3987E499E062E045ED50E024ED30E03B
:1055B00000ED10E071EDE72EF12C0E94DE3909E7D5
:1055C00019E0C8010E948E3483EB97E090937D0927
:1055D00080937C0910938309009382098BE298E001
:1055E000909385098093840980E999E02EDC8BE50E
:1055F00098E09093C4098093C3098BE897E0909357
:10560000C6098093C5098FEC97E09093C8098093F1
:10561000C70981EE97E09093DA098093D9098BED61
:1056200099E0C8D687EA97E09093E3098093E2096E
:105630008BE599E0D0DE1F910F91FF90EF90CF9016
:10564000AF908F900895FC01758364830895FC01E9
:1056500083810895FC01868197810895DC01589A21
:10566000599AE9EBF0E080818E7F808380818D7F85
:105670008083ED91FC9111970680F781E02DCD019B
:1056800061E0199585E48093BC0008951092BC00F8
:105690000895662311F08CE001C088E48093B8007F
:1056A0000895A1E0B0E0E7E5FBE20C946A48DC0174
:1056B0002983ED91FC910484F585E02D21E08E0194
:1056C0000F5F1F4F19952196E4E00C9486480F93C5
:1056D0001F93DC018901ED91FC910288F389E02D93
:1056E00021E019951F910F910895A0E0B0E0EBE73C
:1056F000FBE20C946648EC01C0905D07D0905E0719
:10570000F601A28DB38DED91FC9111970480F58186
:10571000E02DCD0119957B018C018C819D81892B18
:1057200039F58091BC0087FFFCCF26C0F601A28D21
:10573000B38DED91FC9111970480F581E02DCD01A1
:1057400019956E197F09800B910B2C813D8140E0EA
:1057500050E0621773078407950750F01092BC0061
:1057600085E48093BC008B818F5F8B8381E005C0D3
:105770008091BC0087FFDACF80E0CDB7DEB7E8E0EC
:105780000C9482489C01662311F084EC01C084E8EB
:105790008093BC00C901A9DF882319F48091B90066
:1057A000887F08956093BB0024E82093BC009DDFB0
:1057B000982F882341F48091B900887F883219F0AE
:1057C0009091B900987F892F08956093BB0024E8D9
:1057D0002093BC008ACF24EA2093BC0086DF982F58
:1057E000882351F48091B900887F883029F0809116
:1057F000B900887F803111F4892F08959091B90004
:10580000987FFACFA0E0B0E0E8E0FCE20C946648B4
:10581000EC01C0905D07D0905E07F601A28DB38DBC
:10582000ED91FC9111970480F581E02DCD01199542
:105830007B018C018C819D81892B39F58091BC0085
:1058400084FDFCCF26C0F601A28DB38DED91FC91B5
:1058500011970480F581E02DCD0119956E197F090E
:10586000800B910B2C813D8140E050E06217730763
:105870008407950750F01092BC0085E48093BC002B
:105880008B818F5F8B8381E005C08091BC0084FD9C
:10589000DACF80E0CDB7DEB7E8E00C94824824E9A7
:1058A0002093BC00AFCFA0E0B0E0E9E5FCE20C94AF
:1058B0006548EC01F62EE42ED22EC12E222311F4DF
:1058C000DD24D394BD2CBA94CE0185DF982F882394
:1058D00009F03CC01F2D110FCE01612F76DF982FEC
:1058E0008823A1F5CE016E2D5DDF982F882371F5F9
:1058F000CE0171DF982F882349F51F5FCE01612FFC
:1059000064DF982F882311F5802F9C2D9C0179014D
:1059100010E015C01B1539F4CE0160E033DF982F7D
:10592000883539F013C0CE0161E02CDF982F803527
:1059300069F48091BB00F70181937F011F5F1D1502
:1059400048F3CE01ACDF982F882319F08B818F5F4D
:105950008B83892FCDB7DEB7E9E00C948148DF92C5
:10596000EF92FF920F931F93CF93DF93EC01162FCB
:10597000042FF22EE32E442309F401E0D02EDA9412
:10598000CE0129DF982F882351F5110F1F5FCE011B
:10599000612F1BDF982F882311F58F2D9E2D9C01E1
:1059A000790110E015C01D1539F4CE0160E0EADE82
:1059B000982F883539F013C0CE0161E0E3DE982FCF
:1059C000803569F48091BB00F70181937F011F5FEF
:1059D000101748F3CE0163DF982F882319F08B81CD
:1059E0008F5F8B83892FCDB7DEB7E7E00C948348B8
:1059F000DF92EF92FF920F931F93CF93DF93EC010F
:105A0000F62EE42ED22EE7DE982F882301F5FF0C28
:105A1000CE016F2DDADE982F8823C9F4CE016E2DCA
:105A2000C1DE982F882399F4780110E009C0CE01D7
:105A3000F70161917F01B6DE982F882341F41F5F43
:105A40001D15A8F3CE012BDF982F882331F08A8112
:105A5000882319F48B818F5F8B83892FCDB7DEB7B5
:105A6000E7E00C948348EF92FF920F931F93CF933C
:105A7000DF93EC01162F042FF22EE32EACDE982FCD
:105A80008823E9F4110FCE01612F9FDE982F882320
:105A9000B1F48F2D9E2D9C01790110E009C0CE013B
:105AA000F70161917F017EDE982F882341F41F5F0B
:105AB0001017A8F3CE01F3DE982F882319F08B81FD
:105AC0008F5F8B83892FCDB7DEB7E6E00C948448D7
:105AD0001F920F920FB60F9211248F939F93809174
